{
  "_format": "hh-sol-artifact-1",
  "contractName": "CarbonCreditsContract",
  "sourceName": "contracts/CreditsAttestation.sol",
  "abi": [
    {
      "inputs": [
        {
          "internalType": "address",
          "name": "_halo2Verifier",
          "type": "address"
        }
      ],
      "stateMutability": "nonpayable",
      "type": "constructor"
    },
    {
      "anonymous": false,
      "inputs": [
        {
          "indexed": true,
          "internalType": "address",
          "name": "submitter",
          "type": "address"
        },
        {
          "indexed": false,
          "internalType": "uint256[]",
          "name": "instances",
          "type": "uint256[]"
        },
        {
          "indexed": false,
          "internalType": "bytes",
          "name": "proof",
          "type": "bytes"
        }
      ],
      "name": "ProofSubmitted",
      "type": "event"
    },
    {
      "inputs": [
        {
          "internalType": "address",
          "name": "",
          "type": "address"
        }
      ],
      "name": "balances",
      "outputs": [
        {
          "internalType": "uint256",
          "name": "",
          "type": "uint256"
        }
      ],
      "stateMutability": "view",
      "type": "function"
    },
    {
      "inputs": [
        {
          "internalType": "bytes",
          "name": "proof",
          "type": "bytes"
        },
        {
          "internalType": "uint256[]",
          "name": "instances",
          "type": "uint256[]"
        }
      ],
      "name": "claimCredits",
      "outputs": [],
      "stateMutability": "nonpayable",
      "type": "function"
    },
    {
      "inputs": [],
      "name": "halo2Verifier",
      "outputs": [
        {
          "internalType": "contract Halo2Verifier",
          "name": "",
          "type": "address"
        }
      ],
      "stateMutability": "view",
      "type": "function"
    }
  ],
  "bytecode": "0x608060405234801561001057600080fd5b506040516104a63803806104a683398101604081905261002f91610054565b600080546001600160a01b0319166001600160a01b0392909216919091179055610084565b60006020828403121561006657600080fd5b81516001600160a01b038116811461007d57600080fd5b9392505050565b610413806100936000396000f3fe608060405234801561001057600080fd5b50600436106100415760003560e01c806327e235e314610046578063e8022d2114610079578063f0d95be1146100a4575b600080fd5b6100666100543660046101ec565b60016020526000908152604090205481565b6040519081526020015b60405180910390f35b60005461008c906001600160a01b031681565b6040516001600160a01b039091168152602001610070565b6100b76100b236600461021c565b6100b9565b005b600054604051631e8e1e1360e01b81526001600160a01b0390911690631e8e1e13906100ef90879087908790879060040161033b565b6020604051808303816000875af115801561010e573d6000803e3d6000fd5b505050506040513d601f19601f82011682018060405250810190610132919061036d565b61017e5760405162461bcd60e51b8152602060048201526019602482015278141c9bdbd9881d995c9a599a58d85d1a5bdb8819985a5b1959603a1b604482015260640160405180910390fd5b33600090815260016020526040812080546064928392916101a090849061038f565b909155505060405133907f8f7a1e36ad5f6d50165aeaffbe5a132fdd09bd8ba9b5d9f12c9248bfaeb00ed6906101dd90869086908a908a906103b6565b60405180910390a25050505050565b6000602082840312156101fe57600080fd5b81356001600160a01b038116811461021557600080fd5b9392505050565b6000806000806040858703121561023257600080fd5b84356001600160401b038082111561024957600080fd5b818701915087601f83011261025d57600080fd5b81358181111561026c57600080fd5b88602082850101111561027e57600080fd5b60209283019650945090860135908082111561029957600080fd5b818701915087601f8301126102ad57600080fd5b8135818111156102bc57600080fd5b8860208260051b85010111156102d157600080fd5b95989497505060200194505050565b81835281816020850137506000828201602090810191909152601f909101601f19169091010190565b81835260006001600160fb1b0383111561032257600080fd5b8260051b80836020870137939093016020019392505050565b60408152600061034f6040830186886102e0565b8281036020840152610362818587610309565b979650505050505050565b60006020828403121561037f57600080fd5b8151801515811461021557600080fd5b808201808211156103b057634e487b7160e01b600052601160045260246000fd5b92915050565b6040815260006103ca604083018688610309565b82810360208401526103628185876102e056fea264697066735822122050bdcc18cd9b3f21f8df2cfa6590eacb4be4471843311eba2e77489292d53fda64736f6c63430008140033",
  "linkReferences": {},
  "deployedLinkReferences": {}
}